:1000000009C021C020C01FC01EC01DC01CC01BC015
:100010001AC019C011241FBECFE9CDBF20E0A4E64D
:10002000B0E001C01D92A736B207E1F710E0A0E6EC
:10003000B0E0E8ECF3E002C005900D92A436B10701
:10004000D9F7ACD0BFC1DCCF82E088BB8AEF8A95FC
:10005000F1F7089598E032E122E038BB880F08F00C
:1000600028BB00C0915011F428BB02C028BBF5CFBB
:1000700008950F931F93CF93DF938C01E5DFC8E0C2
:10008000D0E0F8018081E6DFF8018181E3DFF8014B
:100090008281E0DF2197A9F7DF91CF911F910F9126
:1000A0000895CF93DF93CDB7DD27C350CDBF909197
:1000B0006600913091F030F09230A9F09330B9F0B1
:1000C0008FEF15C0282F2695982F96959695920F0D
:1000D00099838A8382958F700CC089838A838695E1
:1000E0008695869506C089838A831B8203C089838F
:1000F0008A838B83CE010196BCDFCD5FCDBFDF91BC
:10010000CF910895E199FECF1CBA8EBB6DBBE29AE8
:10011000E19A0895E199FECF8EBBE09A8DB30895E0
:1001200080E187BB88BB88E084BB83E687B983E036
:1001300086B908953699FECF85B193E096B90895B2
:10014000CF93DF93CDB7DD27C350CDBF19821A827D
:100150001B820EE110E0FF24FA94FA82CE01019690
:1001600088DF2FEF86E791E0215080409040E1F753
:1001700000C000001A82CE0101967BDF2FEF84EDD4
:100180009BE1215080409040E1F700C00000015009
:10019000110919F788E385BF8895FDCFC1DF80E09D
:1001A000B9DF8093660000E01AEFC0E043ECC42E94
:1001B000A4D08068D82E90E08C1B910996958795E5
:1001C00096958795D82F34E0E32EF12C8C2F69DF9C
:1001D0002FE786E091E0215080409040E1F700C099
:1001E000000096B381E0692F627091FD80E0482F96
:1001F00050E02091650030E04217530731F49091B0
:1002000064009F5F9093640002C01092640080932A
:100210006500611112C080916400873071F4809193
:1002200066008F5F853018F48093660002C01092DC
:1002300066006091660080E065DF21E0E21AF10867
:10024000CD0FE114F10411F61F5F1F3710F4CD2D0F
:10025000AFCFC6B86FDF813A18F000E010E0F7CFFB
:100260000F5F0430D8F36CDF8F929F92AF92BF92F2
:10027000CF92DF92EF92FF92CF93DF93EC016881F0
:1002800079818A819B81611571058105910521F430
:1002900064E279ED8BE597E02DE133EF41E050E04A
:1002A00053D049015A0127EA31E440E050E033D00D
:1002B0006B017C012CEE34EF4FEF5FEFC501B40111
:1002C0002AD0DC01CB018C0D9D1DAE1DBF1DB7FFDB
:1002D00003C00197A109B04888839983AA83BB838F
:1002E0009F77DF91CF91FF90EF90DF90CF90BF90FD
:1002F000AF909F908F900895B7CF80E690E0B4CFF5
:10030000A0E0B0E08093600090936100A093620051
:10031000B09363000895EE27FF27AA27BB2708C0E4
:10032000A20FB31FE41FF51F220F331F441F551FD9
:10033000969587957795679598F37040A9F70097FC
:1003400099F7BD01CF010895052E97FB16F400948F
:100350000FD057FD05D014D007FC02D046F408C0DA
:1003600050954095309521953F4F4F4F5F4F0895E1
:1003700090958095709561957F4F8F4F9F4F089511
:10038000A1E21A2EAA1BBB1BFD010DC0AA1FBB1F99
:10039000EE1FFF1FA217B307E407F50720F0A21B0B
:1003A000B30BE40BF50B661F771F881F991F1A9478
:1003B00069F760957095809590959B01AC01BD01A2
:0803C000CF010895F894FFCF6E
:0403C8000100000030
:00000001FF
