:1000000009C019C018C017C016C015C014C013C04D
:1000100012C011C011241FBECFE9CDBF10E0A0E671
:10002000B0E0ECE3F3E002C005900D92A436B10716
:10003000D9F716D081C1E4CF98E030E120E038BB99
:10004000880F08F028BB00C0915011F428BB02C0F3
:1000500028BBF5CF089518BA8AEF8A95F1F708956D
:1000600080E187BB88BBC0E03BE9A32EB12C4AE00E
:10007000842E912C9DD0B50134D094E6592E580E83
:10008000052D10E0D0E00C1B1D0B680129E0E22ECD
:10009000F12CC601B40125D03E01660E771E762CE8
:1000A000DADF66946694669488E0282E312C872DDA
:1000B000C3DF872DC1DF862DBFDF81E0281A31081D
:1000C000B1F78FE99CE80197F1F700C0000091E0DB
:1000D000E91AF108C00ED11EE114F104D1F6C52DC4
:1000E000C9CF97FB072E16F4009406D077FD08D0F1
:1000F0000BD007FC05D03EF4909581959F4F089555
:10010000709561957F4F0895AA1BBB1B51E107C0F5
:10011000AA1FBB1FA617B70710F0A61BB70B881F97
:10012000991F5A95A9F780959095BC01CD01089526
:10013000A0E0B0E0EDE9F0E088C0EC0168817981F1
:100140008A819B81611571058105910521F464E225
:1001500079ED8BE597E02DE133EF41E050E036D0CB
:1001600049015A0127EA31E440E050E04BD06901EF
:100170007A01C501B4012CEE34EF4FEF5FEF42D0AE
:10018000022F132F9A01D701C601800F911FA21FC2
:10019000B31FB7FF03C00197A109B04888839983B3
:1001A000AA83BB839F77CDB7DD27ECE065C0C0CFC6
:1001B00080E690E0BDCFA0E0B0E080936000909337
:1001C0006100A0936200B09363000895052E97FB31
:1001D00016F400940FD057FD05D05ED007FC02D076
:1001E00046F408C050954095309521953F4F4F4FAC
:1001F0005F4F089590958095709561957F4F8F4FD3
:100200009F4F089568940013E894A0E0B0E0EAE0FE
:10021000F1E01DC0EFEFE7F959016A015E23550FC8
:10022000EE08FE2C87019B01AC019E23990F660B03
:10023000762FCB0153D0CDB7DD27EAE01FC02F9238
:100240003F924F925F926F927F928F929F92AF9266
:10025000BF92CF92DF92EF92FF920F931F93CF93B3
:10026000DF93CDB7CA1BCDBFDD2709942A88398813
:1002700048885F846E847D848C849B84AA84B9843E
:10028000C884DF80EE80FD800C811B81AA81D9812A
:10029000CE0FCDBFCA2F0895A1E21A2EAA1BBB1BF9
:1002A000FD010DC0AA1FBB1FEE1FFF1FA217B30742
:1002B000E407F50720F0A21BB30BE40BF50B661F58
:1002C000771F881F991F1A9469F76095709580951C
:1002D00090959B01AC01BD01CF010895DF93CF93B1
:1002E0009F92A0E49A2E0024D001E001F00116951F
:1002F0000795F794E794D794C794B794A79448F4D4
:100300001068A20FB31FC41FD51FE61FF71F081EDA
:10031000191E220F331F441F551F661F771F881F8A
:10032000991F9A9421F79D01AE01BF01C0011124CC
:0C0330009F90CF91DF910895F894FFCFCB
:04033C0001000000BC
:00000001FF
